:100000000C942A000C9455070C9488070C94BB0799
:100010000C9447000C9447000C9447000C94470044
:100020000C9447000C9447000C9447000C94470034
:100030000C9447000C9447000C9447000C94470024
:100040000C9447000C9447000C9447000C94470014
:100050000C94470011241FBECFE5D8E0DEBFCDBF12
:1000600010E0A0E6B0E0E8E4FAE202C005900D92EC
:10007000A038B107D9F710E0A0E8B0E001C01D92A8
:10008000A738B107E1F70E943C140C9422150C9498
:100090000000EF92FF920F931F937B018C0120E0F1
:1000A00030E040E05FE40E94490388238CF0C801FF
:1000B000B70120E030E040E05FE40E94C1010E940F
:1000C000A9039B01AC01205030404040504806C07D
:1000D000C801B7010E94A9039B01AC01B901CA0183
:1000E0001F910F91FF90EF900895A0E0B0E0EBE733
:1000F000F0E00C94EB14DC012B01FA019C9192309E
:1001000008F439C1EB018881823008F433C194309E
:1001100069F4843009F02FC111969C91119789815F
:10012000981709F428C1A0E6B0E025C1843009F48D
:1001300021C18230A9F4923009F01DC19A01AD01AC
:1001400088E0EA010990AE01E90109929E0181501F
:10015000C1F7E201898111969C918923818308C1AD
:10016000923009F407C112962D903C901397EB0141
:100170008A819B811496AD90BD90CD90DC901797AD
:10018000EC80FD800E811F819101281B390BB90184
:1001900037FF04C066277727621B730B6032710537
:1001A0000CF061C0121613066CF537014801062EDB
:1001B00004C096948794779467940A94D2F721E0C8
:1001C00030E040E050E004C0220F331F441F551FB1
:1001D0006A95D2F721503040404050402E213F21B7
:1001E00040235123211531054105510521F021E01E
:1001F00030E040E050E079018A01E628F72808293C
:1002000019293CC0232BD1F1260E371E350146019A
:10021000062E04C096948794779467940A94D2F734
:1002200021E030E040E050E004C0220F331F441FC3
:10023000551F6A95D2F721503040404050402A2146
:100240003B214C215D21211531054105510521F04E
:1002500021E030E040E050E059016A01A628B728CB
:10026000C828D9280BC0821593052CF01C01AA249C
:10027000BB24650103C0EE24FF24870111969C91E5
:10028000D20111968C91981709F445C0992339F041
:10029000A80197012A193B094C095D0906C0A6016E
:1002A00095012E193F09400B510B57FD08C01182D3
:1002B0003382228224833583468357831DC081E0A5
:1002C00081833382228288279927DC01821B930B4A
:1002D000A40BB50B84839583A683B7830DC0220F2F
:1002E000331F441F551F24833583468357838281E0
:1002F000938101979383828324813581468157813D
:10030000DA01C9010197A109B1098F5F9F4FAF4F72
:10031000BF4328F30BC0918333822282EA0CFB1C7B
:100320000C1D1D1DE482F5820683178383E0808304
:10033000248135814681578157FF1AC0C901AA27F8
:1003400097FDA095BA2F81709070A070B0705695EF
:10035000479537952795822B932BA42BB52B848318
:100360009583A683B7838281938101969383828349
:10037000DF0101C0D201CD01CDB7DEB7E2E10C94BF
:100380000715A0E2B0E0E7ECF1E00C94F714698304
:100390007A838B839C832D833E834F835887E9E048
:1003A000EE2EF12CEC0EFD1ECE010196B7010E943F
:1003B000D2048E010F5E1F4FCE010596B8010E9438
:1003C000D2048A8991E089278A8BC701B801AE01DE
:1003D000475E5F4F0E9475000E94FD03A096E6E015
:1003E0000C941315A0E2B0E0E8EFF1E00C94F714E0
:1003F00069837A838B839C832D833E834F835887C5
:10040000F9E0EF2EF12CEC0EFD1ECE010196B701A6
:100410000E94D2048E010F5E1F4FCE010596B801D7
:100420000E94D204C701B801AE01475E5F4F0E942F
:1004300075000E94FD03A096E6E00C941315A0E25F
:10044000B0E0E5E2F2E00C94EB1469837A838B83ED
:100450009C832D833E834F835887CE010196BE0136
:10046000675F7F4F0E94D204CE010596BE016F5E8A
:100470007F4F0E94D2049985923088F0898982301A
:10048000C8F0943019F4823051F404C0843029F457
:10049000923081F480E690E0C6C0923049F420E0CA
:1004A0009A858A89981321E02A87CE010996BBC0D4
:1004B000823049F420E09A858A89981321E02A8BBA
:1004C000CE014196B0C02D843E844F8458886D88FB
:1004D0007E888F88988CEE24FF248701AA24BB2471
:1004E000650140E050E060E070E0E0E0F0E0C10174
:1004F00081709070892BE9F0E60CF71C081D191D1E
:100500009A01AB012A0D3B1D4C1D5D1D80E090E062
:10051000A0E0B0E0E614F7040805190520F481E036
:1005200090E0A0E0B0E0BA01A901480F591F6A1F8E
:100530007B1FAA0CBB1CCC1CDD1C97FE08C081E0F5
:1005400090E0A0E0B0E0A82AB92ACA2ADB2A3196B6
:10055000E032F10549F0660C771C881C991C569412
:10056000479437942794C3CFFA85EA892B893C892D
:100570008B859C85280F391F2E5F3F4F17C0CA01FE
:1005800081709070892B61F016950795F794E79428
:1005900080E090E0A0E0B0E8E82AF92A0A2B1B2BC3
:1005A00076956795579547952F5F3F4F77FDE7CF36
:1005B0000CC0440F551F661F771F17FD4160EE0CDE
:1005C000FF1C001F111F21503040403090E05907A0
:1005D00090E0690790E4790760F32B8F3C8FDB0193
:1005E000CA018F779070A070B07080349105A1051A
:1005F000B10561F447FD0AC0E114F10401051105DC
:1006000029F0405C5F4F6F4F7F4F40781A8EFE1786
:1006100011F081E08A8F4D8F5E8F6F8F78A383E01A
:10062000898FCE0149960E94FD03A096E2E10C94C9
:100630000715A8E1B0E0EFE1F3E00C94F71469834B
:100640007A838B839C832D833E834F83588789E0F5
:10065000E82EF12CEC0EFD1ECE010196B7010E9492
:10066000D2048E010F5E1F4FCE010596B8010E9485
:10067000D2048985823040F08989823028F0C70110
:10068000B8010E944A0501C08FEF6896E6E00C941D
:100690001315A8E1B0E0EFE4F3E00C94F7146983DC
:1006A0007A838B839C832D833E834F83588789E095
:1006B000E82EF12CEC0EFD1ECE010196B7010E9432
:1006C000D2048E010F5E1F4FCE010596B8010E9425
:1006D000D2048985823040F08989823028F0C701B0
:1006E000B8010E944A0501C08FEF6896E6E00C94BD
:1006F0001315A8E1B0E0EFE7F3E00C94F714698379
:100700007A838B839C832D833E834F83588789E034
:10071000E82EF12CEC0EFD1ECE010196B7010E94D1
:10072000D2048E010F5E1F4FCE010596B8010E94C4
:10073000D2048985823040F08989823028F0C7014F
:10074000B8010E944A0501C081E06896E6E00C9479
:100750001315ACE0B0E0EFEAF3E00C94FB1469830E
:100760007A838B839C83CE010196BE016B5F7F4FA2
:100770000E94D2048D81823061F1823050F1843048
:1007800021F48E81882351F12EC02F81388537FDC9
:1007900020C06E812F3131051CF06623F9F023C093
:1007A0008EE190E0821B930B29853A854B855C8511
:1007B00004C056954795379527958A95D2F76623B5
:1007C000B1F050954095309521953F4F4F4F5F4F79
:1007D0000EC020E030E040E050E009C02FEF3FEFD6
:1007E0004FEF5FE704C020E030E040E050E8B9019F
:1007F000CA012C96E2E00C941715DF92EF92FF925B
:100800000F931F93FC01E480F58006811781D1804E
:100810008081823048F480E090E0A0E1B0E0E82AF6
:10082000F92A0A2B1B2BA5C0843009F49FC0823003
:1008300021F4EE24FF24870105C0E114F104010531
:10084000110519F4E0E0F0E096C0628173819FEF3A
:10085000623879070CF05BC022E83FEF261B370BAC
:100860002A3131052CF020E030E040E050E02AC091
:10087000B801A701022E04C0769567955795479554
:100880000A94D2F781E090E0A0E0B0E004C0880FC5
:10089000991FAA1FBB1F2A95D2F70197A109B10979
:1008A0008E219F21A023B1230097A105B10521F03E
:1008B00081E090E0A0E0B0E09A01AB01282B392B59
:1008C0004A2B5B2BDA01C9018F779070A070B07052
:1008D00080349105A105B10539F427FF09C0205CDA
:1008E0003F4F4F4F5F4F04C0215C3F4F4F4F5F4F13
:1008F000E0E0F0E02030A0E03A07A0E04A07A0E402
:100900005A0710F0E1E0F0E079018A0127C0603871
:10091000710564F5FB01E158FF4FD801C7018F77DE
:100920009070A070B07080349105A105B10539F4C4
:10093000E7FE0DC080E490E0A0E0B0E004C08FE3EB
:1009400090E0A0E0B0E0E80EF91E0A1F1B1F17FFA1
:1009500005C016950795F794E794319687E01695AC
:100960000795F794E7948A95D1F705C0EE24FF2404
:100970008701EFEFF0E06E2F679566276795902F60
:100980009F77D794DD24D7948E2F8695492F462BB9
:10099000582F5D29B701CA011F910F91FF90EF9069
:1009A000DF900895FC01DB01408151812281622F9B
:1009B0006F7770E0221F2227221F9381892F880FD3
:1009C000822B282F30E0991F9927991F11969C930D
:1009D000119721153105A9F54115510561057105DD
:1009E00011F482E037C082E89FEF13969C938E93B8
:1009F00012979A01AB0167E0220F331F441F551F66
:100A00006A95D1F783E08C930DC0220F331F441FEA
:100A1000551F12968D919C911397019713969C9355
:100A20008E931297203080E0380780E0480780E4FA
:100A3000580758F314962D933D934D935C93179755
:100A400008952F3F310579F4411551056105710570
:100A500019F484E08C93089564FF03C081E08C93C3
:100A600012C01C9210C02F57304013963C932E9307
:100A7000129783E08C9387E0440F551F661F771F02
:100A80008A95D1F7706414964D935D936D937C9322
:100A9000179708951F93DC01FB019C91923008F495
:100AA00047C08081823008F443C0943051F41196DD
:100AB0001C91843099F58181682F70E0611B710968
:100AC0003FC0843021F0923031F48230B9F181811D
:100AD000882389F12DC011961C9111978230F1F075
:100AE00081811817D9F412962D913C911397828128
:100AF00093818217930794F028173907BCF0149656
:100B00008D919D910D90BC91A02D248135814681C0
:100B10005781281739074A075B0718F4112341F05A
:100B20000AC082179307A407B50740F4112319F0F0
:100B300061E070E005C06FEF7FEF02C060E070E041
:100B4000CB011F910895DF93CF93CDB7DEB7AFE50B
:100B5000B0E0EFE5F0E0808180688C93CF91DF9189
:100B60000895DF93CF93CDB7DEB7AFE5B0E0EFE503
:100B7000F0E080818F778C93CF91DF910895DF93A0
:100B8000CF9300D000D000D0CDB7DEB789836A8381
:100B90008981282F30E03E832D838D819E81863090
:100BA000910559F02D813E8127303105B1F08D81BD
:100BB0009E818530910541F145C0A5E5B0E0E5E5B0
:100BC000F0E080818D7F8C93A5E5B0E0E5E5F0E075
:100BD00090818A81892B8C9335C0A5E5B0E0E5E54D
:100BE000F0E08081877F8C93A5E5B0E0E5E5F0E05B
:100BF0008081282F8A81882F90E0880F991F880F85
:100C0000991F822B8C931EC08A81282F30E03C8351
:100C10002B838B819C81009731F02B813C8121308B
:100C2000310549F00FC0A4E5B0E0E4E5F0E08081D3
:100C30008F7B8C9307C0A4E5B0E0E4E5F0E0808111
:100C400080648C9326960FB6F894DEBF0FBECDBF9E
:100C5000CF91DF910895DF93CF9300D00F92CDB75E
:100C6000DEB789838981282F30E03B832A838A81FC
:100C70009B818630910559F02A813B8127303105CF
:100C800071F08A819B818530910589F017C0ABE5B1
:100C9000B0E0EBE5F0E0808180648C930FC0ABE5C1
:100CA000B0E0EBE5F0E0808180688C9307C0ABE5B5
:100CB000B0E0EBE5F0E0808180628C930F900F90C4
:100CC0000F90CF91DF910895DF93CF9300D00F92D3
:100CD000CDB7DEB789838981282F30E03B832A8313
:100CE0008A819B818630910559F02A813B8127308A
:100CF000310571F08A819B818530910589F017C09B
:100D0000ABE5B0E0EBE5F0E080818F7B8C930FC02A
:100D1000ABE5B0E0EBE5F0E080818F778C9307C026
:100D2000ABE5B0E0EBE5F0E080818F7D8C930F9038
:100D30000F900F90CF91DF910895DF93CF9300D064
:100D40000F92CDB7DEB789838981282F30E03B83AE
:100D50002A838A819B818630910559F02A813B81C3
:100D60002730310571F08A819B818530910589F0AA
:100D700017C0AAE5B0E0EAE5F0E0808180648C93DA
:100D80000FC0AAE5B0E0EAE5F0E0808180688C93CE
:100D900007C0AAE5B0E0EAE5F0E0808180628C93CC
:100DA0000F900F900F90CF91DF910895DF93CF9325
:100DB00000D000D0CDB7DEB78A838A81282F30E0FB
:100DC0003C832B838B819C818630910559F02B814C
:100DD0003C812730310581F08B819C8185309105E4
:100DE00099F01BC0EAE5F0E08081829586958695B2
:100DF00083708170898312C0EAE5F0E08081881FEA
:100E00008827881F89830AC0EAE5F0E080818295FF
:100E1000869587708170898301C0198289810F90BE
:100E20000F900F900F90CF91DF910895DF93CF93A4
:100E300000D000D00F92CDB7DEB789837B836A8361
:100E40008A819B81009749F18981282F30E03D8379
:100E50002C838C819D818630910559F02C813D81B8
:100E60002730310569F08C819D818530910579F0BD
:100E700014C08A819B8190938200809381000DC071
:100E80008A819B81909384008093830006C08A812D
:100E90009B8190938600809385000F900F900F9018
:100EA0000F900F90CF91DF9108951F920F920FB680
:100EB0000F9211242F933F934F935F936F937F93E0
:100EC0008F939F93AF93BF93EF93FF93DF93CF9352
:100ED000CDB7DEB78091810090918200009729F014
:100EE000E0918100F09182000995CF91DF91FF910F
:100EF000EF91BF91AF919F918F917F916F915F9192
:100F00004F913F912F910F900FBE0F901F9018950A
:100F10001F920F920FB60F9211242F933F934F936E
:100F20005F936F937F938F939F93AF93BF93EF9351
:100F3000FF93DF93CF93CDB7DEB78091830090917D
:100F40008400009729F0E0918300F09184000995D6
:100F5000CF91DF91FF91EF91BF91AF919F918F91D1
:100F60007F916F915F914F913F912F910F900FBEA5
:100F70000F901F9018951F920F920FB60F92112489
:100F80002F933F934F935F936F937F938F939F9391
:100F9000AF93BF93EF93FF93DF93CF93CDB7DEB7BC
:100FA0008091850090918600009729F0E09185005E
:100FB000F09186000995CF91DF91FF91EF91BF915C
:100FC000AF919F918F917F916F915F914F913F91E1
:100FD0002F910F900FBE0F901F901895DF93CF9316
:100FE000CDB7DEB7EAE3F0E08FEF8083E7E3F0E030
:100FF0008FEF8083E4E3F0E08FEF8083E1E3F0E0C4
:1010000083E18083EBE3F0E01082E8E3F0E010821C
:10101000E5E3F0E01082E2E3F0E08CEE8083CF9134
:10102000DF910895DF93CF9300D000D0CDB7DEB726
:1010300089836A838981282F30E03C832B838B81CD
:101040009C8181309105D1F02B813C81223031058A
:101050002CF48B819C81009761F01EC02B813C8118
:101060002230310581F08B819C818330910581F0A4
:1010700013C0EAE3F0E08A8180830EC0E7E3F0E08A
:101080008A81808309C0E4E3F0E08A81808304C020
:10109000E1E3F0E08A8180830F900F900F900F9032
:1010A000CF91DF910895DF93CF9300D000D0CDB7DB
:1010B000DEB789836A838981282F30E03C832B83C4
:1010C0008B819C8181309105D1F02B813C81223034
:1010D00031052CF48B819C81009761F01EC02B811F
:1010E0003C812230310581F08B819C8183309105D8
:1010F00081F013C0EBE3F0E08A8180830EC0E8E367
:10110000F0E08A81808309C0E5E3F0E08A81808392
:1011100004C0E2E3F0E08A8180830F900F900F908B
:101120000F90CF91DF910895DF93CF93CDB7DEB7C6
:101130002D970FB6F894DEBF0FBECDBF89836A83AB
:101140004B838981282F30E03D872C878C859D85B6
:101150008130910509F44FC02C853D852230310541
:101160002CF48C859D85009771F0EBC02C853D8516
:101170002230310509F477C08C859D858330910537
:1011800009F4A9C0DEC08B81282F30E03B872A8775
:101190008A859B850097D1F02A853B8521303105D2
:1011A00009F0CFC0AAE3B0E0EAE3F0E08081482F85
:1011B0008A81282F30E081E090E0022E02C0880F63
:1011C000991F0A94E2F7842B8C93BBC0AAE3B0E08A
:1011D000EAE3F0E08081482F8A81282F30E081E027
:1011E00090E0022E02C0880F991F0A94E2F78095C2
:1011F00084238C93A6C08B81282F30E039872887E1
:10120000888599850097D1F0288539852130310569
:1012100009F097C0A7E3B0E0E7E3F0E08081482F52
:101220008A81282F30E081E090E0022E02C0880FF2
:10123000991F0A94E2F7842B8C9383C0A7E3B0E054
:10124000E7E3F0E08081482F8A81282F30E081E0B9
:1012500090E0022E02C0880F991F0A94E2F7809551
:1012600084238C936EC08B81282F30E03F832E83A4
:101270008E819F810097D1F02E813F8121303105F1
:1012800009F05FC0A4E3B0E0E4E3F0E08081482F20
:101290008A81282F30E081E090E0022E02C0880F82
:1012A000991F0A94E2F7842B8C934BC0A4E3B0E01F
:1012B000E4E3F0E08081482F8A81282F30E081E04C
:1012C00090E0022E02C0880F991F0A94E2F78095E1
:1012D00084238C9336C08B81282F30E03D832C8370
:1012E0008C819D810097C9F02C813D812130310591
:1012F00041F5A1E3B0E0E1E3F0E08081482F8A818D
:10130000282F30E081E090E0022E02C0880F991F64
:101310000A94E2F7842B8C9314C0A1E3B0E0E1E3DC
:10132000F0E08081482F8A81282F30E081E090E032
:10133000022E02C0880F991F0A94E2F78095842339
:101340008C932D960FB6F894DEBF0FBECDBFCF9114
:10135000DF910895DF93CF93CDB7DEB72D970FB60A
:10136000F894DEBF0FBECDBF89836A834B8389812A
:10137000282F30E03D872C878C859D858130910515
:1013800009F44FC02C853D85223031052CF48C8525
:101390009D85009771F0EBC02C853D85223031058D
:1013A00009F477C08C859D858330910509F4A9C027
:1013B000DEC08B81282F30E03B872A878A859B857A
:1013C0000097D1F02A853B852130310509F0CFC047
:1013D000ABE3B0E0EBE3F0E08081482F8A81282F77
:1013E00030E081E090E0022E02C0880F991F0A943D
:1013F000E2F7842B8C93BBC0ABE3B0E0EBE3F0E00F
:101400008081482F8A81282F30E081E090E0022EF1
:1014100002C0880F991F0A94E2F7809584238C9369
:10142000A6C08B81282F30E0398728878885998549
:101430000097D1F0288539852130310509F097C012
:10144000A8E3B0E0E8E3F0E08081482F8A81282F0C
:1014500030E081E090E0022E02C0880F991F0A94CC
:10146000E2F7842B8C9383C0A8E3B0E0E8E3F0E0DC
:101470008081482F8A81282F30E081E090E0022E81
:1014800002C0880F991F0A94E2F7809584238C93F9
:101490006EC08B81282F30E03F832E838E819F8109
:1014A0000097D1F02E813F812130310509F05FC0D6
:1014B000A5E3B0E0E5E3F0E08081482F8A81282FA2
:1014C00030E081E090E0022E02C0880F991F0A945C
:1014D000E2F7842B8C934BC0A5E3B0E0E5E3F0E0AA
:1014E0008081482F8A81282F30E081E090E0022E11
:1014F00002C0880F991F0A94E2F7809584238C9389
:1015000036C08B81282F30E03D832C838C819D81D8
:101510000097C9F02C813D812130310541F5A2E3CE
:10152000B0E0E2E3F0E08081482F8A81282F30E0AC
:1015300081E090E0022E02C0880F991F0A94E2F722
:10154000842B8C9314C0A2E3B0E0E2E3F0E080814E
:10155000482F8A81282F30E081E090E0022E02C0DF
:10156000880F991F0A94E2F7809584238C932D9617
:101570000FB6F894DEBF0FBECDBFCF91DF910895B7
:10158000DF93CF9300D000D00F92CDB7DEB78A8320
:101590006B8319828A81282F30E03D832C834C8114
:1015A0005D814130510541F18C819D8182309105F1
:1015B00034F42C813D812115310561F052C04C81FC
:1015C0005D814230510551F18C819D8183309105BF
:1015D000B9F147C0E9E3F0E08081282F30E08B814A
:1015E000882F90E0A90102C0559547958A95E2F7AA
:1015F000CA018170898335C0E6E3F0E08081282F3D
:1016000030E08B81882F90E0A90102C05595479565
:101610008A95E2F7CA018170898323C0E3E3F0E091
:101620008081282F30E08B81882F90E0A90102C0B3
:10163000559547958A95E2F7CA018170898311C053
:10164000E0E3F0E08081282F30E08B81882F90E06C
:10165000A90102C0559547958A95E2F7CA018170A4
:10166000898389810F900F900F900F900F90CF91E9
:10167000DF910895DF93CF9300D000D00F92CDB7C4
:10168000DEB789836A834B838981282F30E03D83CD
:101690002C838C819D818130910549F12C813D8184
:1016A000223031052CF48C819D81009761F05AC065
:1016B0002C813D812230310571F18C819D818330F7
:1016C0009105E9F14FC0ABE3B0E0EBE3F0E08081DE
:1016D000482F8A81282F30E081E090E0022E02C05E
:1016E000880F991F0A94E2F784278C933BC0A8E3E4
:1016F000B0E0E8E3F0E08081482F8A81282F30E0D5
:1017000081E090E0022E02C0880F991F0A94E2F750
:1017100084278C9327C0A5E3B0E0E5E3F0E0808167
:10172000482F8A81282F30E081E090E0022E02C00D
:10173000880F991F0A94E2F784278C9313C0A2E3C1
:10174000B0E0E2E3F0E08081482F8A81282F30E08A
:1017500081E090E0022E02C0880F991F0A94E2F700
:1017600084278C930F900F900F900F900F90CF9134
:10177000DF9108950F931F93DF93CF93CDB7DEB71B
:10178000C754D0400FB6F894DEBF0FBECDBFFE01E8
:10179000E95BFF4F8083FE01E95BFF4F808182950B
:1017A0008F70982F917081E060E0492F0E94AA0904
:1017B000FE01E95BFF4F8081829586958770982FA7
:1017C000917081E061E0492F0E94AA09FE01E95B66
:1017D000FF4F80818295869586958370982F9170B2
:1017E00081E062E0492F0E94AA09FE01E95BFF4FF8
:1017F0008081982F991F9927991F81E064E0492FD4
:101800000E94AA0980E063E040E00E94AA09FE016C
:10181000ED5BFF4F80E090E0A0E8BFE38083918321
:10182000A283B3838E01015C1F4FFE01ED5BFF4F6E
:10183000608171818281938120E030E84BE355E43F
:101840000E941F02DC01CB01F80180839183A283F7
:10185000B383FE01FF96608171818281938120E0D4
:1018600030E040E85FE30E94790388232CF481E0B4
:1018700090E09EAF8DAF46C0FE01FF966081718102
:101880008281938120E03FEF4FE757E40E941903E4
:10189000181664F5FE01ED5BFF4F60817181828156
:1018A000938120E030E040E251E40E941F02DC011D
:1018B000CB01BC01CD010E944900DC01CB019EAFF0
:1018C0008DAF0FC08CE291E09CAF8BAF8BAD9CAD28
:1018D0000197F1F79CAF8BAF8DAD9EAD01979EAF99
:1018E0008DAF8DAD9EAD009769F716C0FE01FF96D6
:1018F00060817181828193810E944900DC01CB016A
:101900009EAF8DAF8DAD9EAD9AAF89AF89AD9AADCB
:101910000197F1F79AAF89AF80E062E041E00E9461
:10192000AA0980E090E0A0E8BFE38DAB9EABAFAB2F
:10193000B8AF6DA97EA98FA998AD20E030E84BE340
:1019400055E40E941F02DC01CB0189AB9AABABAB23
:10195000BCAB69A97AA98BA99CA920E030E040E83A
:101960005FE30E94790388232CF481E090E098AB38
:101970008FA73FC069A97AA98BA99CA920E03FEF56
:101980004FE757E40E94190318164CF56DA97EA97C
:101990008FA998AD20E030E040E251E40E941F02A0
:1019A000DC01CB01BC01CD010E944900DC01CB016F
:1019B00098AB8FA70FC08CE291E09EA78DA78DA555
:1019C0009EA50197F1F79EA78DA78FA598A90197CE
:1019D00098AB8FA78FA598A9009769F714C069A93C
:1019E0007AA98BA99CA90E944900DC01CB0198AB84
:1019F0008FA78FA598A99CA78BA78BA59CA50197BE
:101A0000F1F79CA78BA780E062E040E00E94AA0962
:101A100080E090E0A0E8BFE38FA398A7A9A7BAA7AA
:101A20006FA178A589A59AA520E030E84BE355E49D
:101A30000E941F02DC01CB018BA39CA3ADA3BEA31C
:101A40006BA17CA18DA19EA120E030E040E85FE386
:101A50000E94790388232CF481E090E09AA389A363
:101A60003FC06BA17CA18DA19EA120E03FEF4FE77D
:101A700057E40E94190318164CF56FA178A589A5A3
:101A80009AA520E030E040E251E40E941F02DC0110
:101A9000CB01BC01CD010E944900DC01CB019AA31E
:101AA00089A30FC08CE291E098A38F8F8F8D98A1AE
:101AB0000197F1F798A38F8F89A19AA101979AA313
:101AC00089A389A19AA1009769F714C06BA17CA191
:101AD0008DA19EA10E944900DC01CB019AA389A39C
:101AE00089A19AA19E8F8D8F8D8D9E8D0197F1F783
:101AF0009E8F8D8FFE01E95BFF4F8081982F917043
:101B000081E060E0492F0E94AA09FE01E95BFF4FD6
:101B100080818695982F917081E061E0492F0E9425
:101B2000AA09FE01E95BFF4F808186958695982F73
:101B3000917081E062E0492F0E94AA09FE01E95BF1
:101B4000FF4F8081869586958695982F917081E0CC
:101B500064E0492F0E94AA0980E062E041E00E940F
:101B6000AA0980E090E0A0E8BFE3898F9A8FAB8F4D
:101B7000BC8F698D7A8D8B8D9C8D20E030E84BE396
:101B800055E40E941F02DC01CB018D8B9E8BAF8B35
:101B9000B88F6D897E898F89988D20E030E040E88C
:101BA0005FE30E94790388232CF481E090E09C8B12
:101BB0008B8B3FC06D897E898F89988D20E03FEFA8
:101BC0004FE757E40E94190318164CF5698D7A8D7A
:101BD0008B8D9C8D20E030E040E251E40E941F029A
:101BE000DC01CB01BC01CD010E944900DC01CB012D
:101BF0009C8B8B8B0FC08CE291E09A8B898B8989AF
:101C00009A890197F1F79A8B898B8B899C89019727
:101C10009C8B8B8B8B899C89009769F714C06D898D
:101C20007E898F89988D0E944900DC01CB019C8BB5
:101C30008B8B8B899C89988B8F878F85988901974F
:101C4000F1F7988B8F8780E062E040E00E94AA095C
:101C500080E090E0A0E8BFE38B879C87AD87BE87DC
:101C60006B857C858D859E8520E030E84BE355E4CF
:101C70000E941F02DC01CB018F839887A987BA8756
:101C80006F81788589859A8520E030E040E85FE3C0
:101C90000E94790388232CF481E090E09E838D8359
:101CA0003FC06F81788589859A8520E03FEF4FE7B7
:101CB00057E40E94190318164CF56B857C858D85B9
:101CC0009E8520E030E040E251E40E941F02DC01EA
:101CD000CB01BC01CD010E944900DC01CB019E83F8
:101CE0008D830FC08CE291E09C838B838B819C81E0
:101CF0000197F1F79C838B838D819E8101979E8351
:101D00008D838D819E81009769F714C06F817885DE
:101D100089859A850E944900DC01CB019E838D83D1
:101D20008D819E819A83898389819A810197F1F7B8
:101D30009A838983C95BDF4F0FB6F894DEBF0FBE6D
:101D4000CDBFCF91DF911F910F9108950F931F93F6
:101D5000DF93CF93CDB7DEB7C754D0400FB6F8941A
:101D6000DEBF0FBECDBFFE01E95BFF4F8083FE01EA
:101D7000E95BFF4F808182958F70982F917081E091
:101D800060E0492F0E94AA09FE01E95BFF4F8081B4
:101D9000829586958770982F917081E061E0492F38
:101DA0000E94AA09FE01E95BFF4F8081829586951A
:101DB00086958370982F917081E062E0492F0E9490
:101DC000AA09FE01E95BFF4F8081982F991F99278F
:101DD000991F81E064E0492F0E94AA0980E063E036
:101DE00041E00E94AA09FE01ED5BFF4F80E090E018
:101DF000A0E8BFE380839183A283B3838E01015C5B
:101E00001F4FFE01ED5BFF4F6081718182819381E5
:101E100020E030E84BE355E40E941F02DC01CB01D7
:101E2000F80180839183A283B383FE01FF966081D2
:101E300071818281938120E030E040E85FE30E947D
:101E4000790388232CF481E090E09EAF8DAF46C0EB
:101E5000FE01FF96608171818281938120E03FEFD6
:101E60004FE757E40E941903181664F5FE01ED5B75
:101E7000FF4F608171818281938120E030E040E2F8
:101E800051E40E941F02DC01CB01BC01CD010E9484
:101E90004900DC01CB019EAF8DAF0FC08CE291E019
:101EA0009CAF8BAF8BAD9CAD0197F1F79CAF8BAF27
:101EB0008DAD9EAD01979EAF8DAF8DAD9EAD009760
:101EC00069F716C0FE01FF9660817181828193815E
:101ED0000E944900DC01CB019EAF8DAF8DAD9EAD60
:101EE0009AAF89AF89AD9AAD0197F1F79AAF89AFF3
:101EF00080E062E041E00E94AA0980E090E0A0E872
:101F0000BFE38DAB9EABAFABB8AF6DA97EA98FA978
:101F100098AD20E030E84BE355E40E941F02DC015D
:101F2000CB0189AB9AABABABBCAB69A97AA98BA946
:101F30009CA920E030E040E85FE30E947903882319
:101F40002CF481E090E098AB8FA73FC069A97AA9F3
:101F50008BA99CA920E03FEF4FE757E40E941903AB
:101F600018164CF56DA97EA98FA998AD20E030E038
:101F700040E251E40E941F02DC01CB01BC01CD0113
:101F80000E944900DC01CB0198AB8FA70FC08CE207
:101F900091E09EA78DA78DA59EA50197F1F79EA71D
:101FA0008DA78FA598A9019798AB8FA78FA598A902
:101FB000009769F714C069A97AA98BA99CA90E9406
:101FC0004900DC01CB0198AB8FA78FA598A99CA7EE
:101FD0008BA78BA59CA50197F1F79CA78BA780E009
:101FE00062E040E00E94AA0980E090E0A0E8BFE340
:101FF0008FA398A7A9A7BAA76FA178A589A59AA525
:1020000020E030E84BE355E40E941F02DC01CB01E5
:102010008BA39CA3ADA3BEA36BA17CA18DA19EA10C
:1020200020E030E040E85FE30E94790388232CF44D
:1020300081E090E09AA389A33FC06BA17CA18DA110
:102040009EA120E03FEF4FE757E40E9419031816C6
:102050004CF56FA178A589A59AA520E030E040E273
:1020600051E40E941F02DC01CB01BC01CD010E94A2
:102070004900DC01CB019AA389A30FC08CE291E057
:1020800098A38F8F8F8D98A10197F1F798A38F8FC9
:1020900089A19AA101979AA389A389A19AA10097DE
:1020A00069F714C06BA17CA18DA19EA10E9449007B
:1020B000DC01CB019AA389A389A19AA19E8F8D8F60
:1020C0008D8D9E8D0197F1F79E8F8D8FFE01E95BBF
:1020D000FF4F8081982F917081E060E0492F0E942E
:1020E000AA09FE01E95BFF4F80818695982F9170C8
:1020F00081E061E0492F0E94AA09FE01E95BFF4FE0
:10210000808186958695982F917081E062E0492FB5
:102110000E94AA09FE01E95BFF4F808186958695A2
:102120008695982F917081E064E0492F0E94AA095A
:1021300080E062E041E00E94AA0980E090E0A0E82F
:10214000BFE3898F9A8FAB8FBC8F698D7A8D8B8D12
:102150009C8D20E030E84BE355E40E941F02DC0137
:10216000CB018D8B9E8BAF8BB88F6D897E898F89CC
:10217000988D20E030E040E85FE30E9479038823F7
:102180002CF481E090E09C8B8B8B3FC06D897E8925
:102190008F89988D20E03FEF4FE757E40E941903A5
:1021A00018164CF5698D7A8D8B8D9C8D20E030E072
:1021B00040E251E40E941F02DC01CB01BC01CD01D1
:1021C0000E944900DC01CB019C8B8B8B0FC08CE201
:1021D00091E09A8B898B89899A890197F1F79A8B7B
:1021E000898B8B899C8901979C8B8B8B8B899C8994
:1021F000009769F714C06D897E898F89988D0E9438
:102200004900DC01CB019C8B8B8B8B899C89988B43
:102210008F878F8598890197F1F7988B8F8780E05A
:1022200062E040E00E94AA0980E090E0A0E8BFE3FD
:102230008B879C87AD87BE876B857C858D859E85CA
:1022400020E030E84BE355E40E941F02DC01CB01A3
:102250008F839887A987BA876F81788589859A85C2
:1022600020E030E040E85FE30E94790388232CF40B
:1022700081E090E09E838D833FC06F817885898562
:102280009A8520E03FEF4FE757E40E9419031816A4
:102290004CF56B857C858D859E8520E030E040E2A5
:1022A00051E40E941F02DC01CB01BC01CD010E9460
:1022B0004900DC01CB019E838D830FC08CE291E04D
:1022C0009C838B838B819C810197F1F79C838B830B
:1022D0008D819E8101979E838D838D819E81009744
:1022E00069F714C06F81788589859A850E944900B5
:1022F000DC01CB019E838D838D819E819A838983AE
:1023000089819A810197F1F79A838983C95BDF4FAD
:102310000FB6F894DEBF0FBECDBFCF91DF911F91F6
:102320000F910895DF93CF93CDB7DEB72E970FB6F9
:10233000F894DEBF0FBECDBF80E090E0A0EAB1E42C
:102340008B879C87AD87BE876B857C858D859E85B9
:1023500020E030E84BE355E40E941F02DC01CB0192
:102360008F839887A987BA876F81788589859A85B1
:1023700020E030E040E85FE30E94790388232CF4FA
:1023800081E090E09E838D833FC06F817885898551
:102390009A8520E03FEF4FE757E40E941903181693
:1023A0004CF56B857C858D859E8520E030E040E294
:1023B00051E40E941F02DC01CB01BC01CD010E944F
:1023C0004900DC01CB019E838D830FC08CE291E03C
:1023D0009C838B838B819C810197F1F79C838B83FA
:1023E0008D819E8101979E838D838D819E81009733
:1023F00069F714C06F81788589859A850E944900A4
:10240000DC01CB019E838D838D819E819A8389839C
:1024100089819A810197F1F79A83898383E30E94E6
:10242000BA0B82E30E94BA0B88E20E94BA0B8EE0DC
:102430000E94BA0B81E00E94BA0B86E00E94BA0BA0
:102440002E960FB6F894DEBF0FBECDBFCF91DF91B1
:102450000895EF92FF920F931F93DF93CF93CDB721
:10246000DEB728970FB6F894DEBF0FBECDBF6D83E1
:102470007E838F83988781E090E0A0E0B0E089833D
:102480009A83AB83BC838D819E81AF81B885009791
:10249000A105B105D1F580E30E94A60E36C0898161
:1024A0009A81AB81BC812AE030E040E050E0BC0181
:1024B000CD010E94AA147B018C018D819E81AF8188
:1024C000B8852AE030E040E050E0BC01CD010E9438
:1024D000C914DC01CB018E0D9F1DA01FB11F898384
:1024E0009A83AB83BC838D819E81AF81B8852AE0BE
:1024F00030E040E050E0BC01CD010E94C914DA0197
:10250000C9018D839E83AF83B8878D819E81AF8102
:10251000B8850097A105B10511F623C089819A817C
:10252000AB81BC812AE030E040E050E0BC01CD014D
:102530000E94C914DC01CB01805D0E94A60E898136
:102540009A81AB81BC812AE030E040E050E0BC01E0
:10255000CD010E94C914DA01C90189839A83AB8332
:10256000BC8389819A81AB81BC8181309105A105B1
:10257000B105A1F628960FB6F894DEBF0FBECDBF09
:10258000CF91DF911F910F91FF90EF900895DF930E
:10259000CF9300D000D00F92CDB7DEB78A836B8384
:1025A00019828A81282F30E03D832C838C819D8184
:1025B00081309105C9F02C813D81223031052CF408
:1025C0008C819D81009761F01AC02C813D81223061
:1025D000310571F08C819D818330910569F00FC0C8
:1025E0008B81805889830BC08B818054898307C07D
:1025F0008B818C56898303C08B818C52898389811E
:1026000080680E94BA0B0F900F900F900F900F9060
:10261000CF91DF910895DF93CF9300D00F92CDB784
:10262000DEB79B838A8319820EC08981282F30E010
:102630008A819B81FC01E20FF31F80810E94A60E1C
:1026400089818F5F89838981282F30E08A819B81EE
:10265000FC01E20FF31F8081882339F70F900F9060
:102660000F90CF91DF910895DF93CF93CDB7DEB771
:1026700063970FB6F894DEBF0FBECDBF8FEF888B88
:102680001F861B8ADAC08B89882F90E0FC01E859ED
:10269000FF4F908182E0692F40E00E94AA091A8AC8
:1026A000B6C08A89882F90E0FC01E459FF4F9081E1
:1026B00083E0692F0E94C00A898B8989882309F0E9
:1026C000A3C080E090E0A6E1B3E48B879C87AD8750
:1026D000BE876B857C858D859E8520E030E84BE349
:1026E00055E40E941F02DC01CB018F839887A987E4
:1026F000BA876F81788589859A8520E030E040E847
:102700005FE30E94790388232CF481E090E09E83AC
:102710008D833FC06F81788589859A8520E03FEF62
:102720004FE757E40E94190318164CF56B857C851A
:102730008D859E8520E030E040E251E40E941F023A
:10274000DC01CB01BC01CD010E944900DC01CB01C1
:102750009E838D830FC08CE291E09C838B838B8161
:102760009C810197F1F79C838B838D819E810197DA
:102770009E838D838D819E81009769F714C06F8140
:10278000788589859A850E944900DC01CB019E836A
:102790008D838D819E819A83898389819A81019716
:1027A000F1F79A8389838A89882F90E0FC01E459A4
:1027B000FF4F908183E0692F0E94C00A898B0CC073
:1027C0008A89882F90E0FC01E459FF4F908183E0D3
:1027D000692F0E94C00A898B8989882389F381E047
:1027E0008F878B89482F50E08A89282F30E0CA01D3
:1027F000880F991F880F991F820F931FFC01E059C2
:10280000FF4F8081888B07C08A898F5F8A8B8A8976
:10281000843008F446CF8B89882F90E0FC01E8597A
:10282000FF4F908182E0692F41E00E94AA098F85C5
:10283000813039F08B898F5F8B8B8B89843008F4E2
:1028400022CF888963960FB6F894DEBF0FBECDBF46
:10285000CF91DF910895DF93CF9300D0CDB7DEB74E
:102860008A8383E06A810E94C00A898389810F90EC
:102870000F90CF91DF910895DF93CF93CDB7DEB75F
:102880000E94EE0787E062E00E94BF0587E00E9499
:102890002B060E94921180918000882F90E0A0E08A
:1028A000B0E0BC01CD010E94291283E065E00E94E6
:1028B000C00A8823C1F481E00E94BA0B83E065E07E
:1028C0000E94C00A8823D1F38091800081508093B8
:1028D000800080918000882F90E0A0E0B0E0BC01F3
:1028E000CD010E94291287E00E94D6068130E9F6C8
:1028F00081E00E94BA0B809180008F5F80938000FE
:1029000080918000882F90E0A0E0B0E0BC01CD0174
:102910000E94291287E00E949D06C7CFDF93CF93C4
:10292000CDB7DEB781E00E94BA0B809180008F5F47
:102930008093800080918000882F90E0A0E0B0E03C
:10294000BC01CD010E94291287E00E949D06CF9113
:10295000DF910895629FD001739FF001829FE00D87
:10296000F11D649FE00DF11D929FF00D839FF00D0E
:10297000749FF00D659FF00D9927729FB00DE11DBA
:10298000F91F639FB00DE11DF91FBD01CF01112497
:102990000895A1E21A2EAA1BBB1BFD010DC0AA1FA0
:1029A000BB1FEE1FFF1FA217B307E407F50720F0B8
:1029B000A21BB30BE40BF50B661F771F881F991F33
:1029C0001A9469F760957095809590959B01AC017C
:1029D000BD01CF0108952F923F924F925F926F9267
:1029E0007F928F929F92AF92BF92CF92DF92EF929F
:1029F000FF920F931F93CF93DF93CDB7DEB7CA1B20
:102A0000DB0B0FB6F894DEBF0FBECDBF09942A884A
:102A1000398848885F846E847D848C849B84AA84F2
:102A2000B984C884DF80EE80FD800C811B81AA817F
:102A3000B981CE0FD11D0FB6F894DEBF0FBECDBF4A
:082A4000ED010895F894FFCFA9
:102A4800000000000000000005040302070605035B
:102A58003132332B3435365F3738392A43303D2FFE
:00000001FF
